{
  "contractName": "BIoTCM",
  "abi": [
    {
      "inputs": [],
      "stateMutability": "nonpayable",
      "type": "constructor"
    },
    {
      "anonymous": false,
      "inputs": [
        {
          "indexed": false,
          "internalType": "address",
          "name": "Consumer",
          "type": "address"
        },
        {
          "indexed": false,
          "internalType": "string",
          "name": "message",
          "type": "string"
        }
      ],
      "name": "ConsumerRegisterProductEvent",
      "type": "event"
    },
    {
      "anonymous": false,
      "inputs": [
        {
          "indexed": false,
          "internalType": "uint256",
          "name": "id",
          "type": "uint256"
        },
        {
          "indexed": false,
          "internalType": "string",
          "name": "description",
          "type": "string"
        },
        {
          "indexed": false,
          "internalType": "uint256[]",
          "name": "price",
          "type": "uint256[]"
        },
        {
          "indexed": false,
          "internalType": "uint256[]",
          "name": "boundedError",
          "type": "uint256[]"
        },
        {
          "indexed": false,
          "internalType": "address",
          "name": "owner",
          "type": "address"
        }
      ],
      "name": "ContentProductCreated",
      "type": "event"
    },
    {
      "anonymous": false,
      "inputs": [
        {
          "indexed": false,
          "internalType": "uint256",
          "name": "id",
          "type": "uint256"
        },
        {
          "indexed": false,
          "internalType": "string",
          "name": "description",
          "type": "string"
        },
        {
          "indexed": false,
          "internalType": "uint256",
          "name": "price",
          "type": "uint256"
        },
        {
          "indexed": false,
          "internalType": "uint256",
          "name": "boundedError",
          "type": "uint256"
        },
        {
          "indexed": false,
          "internalType": "address payable",
          "name": "owner",
          "type": "address"
        },
        {
          "indexed": false,
          "internalType": "address",
          "name": "Consumer",
          "type": "address"
        },
        {
          "indexed": false,
          "internalType": "string",
          "name": "ConsumerPubliceKey",
          "type": "string"
        }
      ],
      "name": "ContentProductPurchased",
      "type": "event"
    },
    {
      "anonymous": false,
      "inputs": [
        {
          "indexed": false,
          "internalType": "string",
          "name": "fileHash",
          "type": "string"
        }
      ],
      "name": "ContentProductQuery",
      "type": "event"
    },
    {
      "anonymous": false,
      "inputs": [
        {
          "indexed": false,
          "internalType": "uint256",
          "name": "id",
          "type": "uint256"
        },
        {
          "indexed": false,
          "internalType": "address",
          "name": "owner",
          "type": "address"
        },
        {
          "indexed": false,
          "internalType": "address",
          "name": "Consumer",
          "type": "address"
        }
      ],
      "name": "ContentProductSend",
      "type": "event"
    },
    {
      "inputs": [],
      "name": "ContentProductCount",
      "outputs": [
        {
          "internalType": "uint256",
          "name": "",
          "type": "uint256"
        }
      ],
      "stateMutability": "view",
      "type": "function",
      "constant": true
    },
    {
      "inputs": [],
      "name": "contractCreator",
      "outputs": [
        {
          "internalType": "address",
          "name": "",
          "type": "address"
        }
      ],
      "stateMutability": "view",
      "type": "function",
      "constant": true
    },
    {
      "inputs": [
        {
          "internalType": "string",
          "name": "_description",
          "type": "string"
        },
        {
          "internalType": "uint256[]",
          "name": "_price",
          "type": "uint256[]"
        },
        {
          "internalType": "uint256[]",
          "name": "_boundedError",
          "type": "uint256[]"
        }
      ],
      "name": "dataOwnerCreateContentProduct",
      "outputs": [],
      "stateMutability": "nonpayable",
      "type": "function"
    },
    {
      "inputs": [
        {
          "internalType": "string",
          "name": "_publicKey",
          "type": "string"
        }
      ],
      "name": "consumerRegisterProduct",
      "outputs": [
        {
          "internalType": "address",
          "name": "",
          "type": "address"
        }
      ],
      "stateMutability": "nonpayable",
      "type": "function"
    },
    {
      "inputs": [
        {
          "internalType": "uint256",
          "name": "_id",
          "type": "uint256"
        }
      ],
      "name": "purchaseContentProduct",
      "outputs": [],
      "stateMutability": "payable",
      "type": "function",
      "payable": true
    },
    {
      "inputs": [
        {
          "internalType": "uint256",
          "name": "_id",
          "type": "uint256"
        },
        {
          "internalType": "string",
          "name": "_fileHash",
          "type": "string"
        },
        {
          "internalType": "address",
          "name": "_Consumer",
          "type": "address"
        }
      ],
      "name": "sendContentProduct",
      "outputs": [],
      "stateMutability": "nonpayable",
      "type": "function"
    },
    {
      "inputs": [
        {
          "internalType": "uint256",
          "name": "_id",
          "type": "uint256"
        }
      ],
      "name": "queryContentProduct",
      "outputs": [],
      "stateMutability": "nonpayable",
      "type": "function"
    },
    {
      "inputs": [
        {
          "internalType": "uint256",
          "name": "_id",
          "type": "uint256"
        }
      ],
      "name": "getContentProductInfo",
      "outputs": [
        {
          "internalType": "uint256",
          "name": "id",
          "type": "uint256"
        },
        {
          "internalType": "string",
          "name": "",
          "type": "string"
        },
        {
          "internalType": "uint256[]",
          "name": "",
          "type": "uint256[]"
        },
        {
          "internalType": "uint256[]",
          "name": "",
          "type": "uint256[]"
        },
        {
          "internalType": "address",
          "name": "",
          "type": "address"
        }
      ],
      "stateMutability": "view",
      "type": "function",
      "constant": true
    }
  ],
  "bytecode": "0x6080604052600060015534801561001557600080fd5b50336000806101000a81548173ffffffffffffffffffffffffffffffffffffffff021916908373ffffffffffffffffffffffffffffffffffffffff160217905550611498806100656000396000f3fe60806040526004361061007b5760003560e01c8063264cd4d61161004e578063264cd4d6146103fd57806363db7657146104385780638881ea341461052a5780638a4844f1146105555761007b565b80631046f75b1461008057806316c05fde146102705780631844ce291461029e5780631e2f73b1146103a6575b600080fd5b34801561008c57600080fd5b5061026e600480360360608110156100a357600080fd5b81019080803590602001906401000000008111156100c057600080fd5b8201836020820111156100d257600080fd5b803590602001918460018302840111640100000000831117156100f457600080fd5b91908080601f016020809104026020016040519081016040528093929190818152602001838380828437600081840152601f19601f8201169050808301925050505050505091929192908035906020019064010000000081111561015757600080fd5b82018360208201111561016957600080fd5b8035906020019184602083028401116401000000008311171561018b57600080fd5b919080806020026020016040519081016040528093929190818152602001838360200280828437600081840152601f19601f820116905080830192505050505050509192919290803590602001906401000000008111156101eb57600080fd5b8201836020820111156101fd57600080fd5b8035906020019184602083028401116401000000008311171561021f57600080fd5b919080806020026020016040519081016040528093929190818152602001838360200280828437600081840152601f19601f8201169050808301925050505050505091929192905050506106d3565b005b61029c6004803603602081101561028657600080fd5b8101908080359060200190929190505050610953565b005b3480156102aa57600080fd5b50610364600480360360208110156102c157600080fd5b81019080803590602001906401000000008111156102de57600080fd5b8201836020820111156102f057600080fd5b8035906020019184600183028401116401000000008311171561031257600080fd5b91908080601f016020809104026020016040519081016040528093929190818152602001838380828437600081840152601f19601f820116905080830192505050505050509192919290505050610d09565b604051808273ffffffffffffffffffffffffffffffffffffffff1673ffffffffffffffffffffffffffffffffffffffff16815260200191505060405180910390f35b3480156103b257600080fd5b506103bb610ed1565b604051808273ffffffffffffffffffffffffffffffffffffffff1673ffffffffffffffffffffffffffffffffffffffff16815260200191505060405180910390f35b34801561040957600080fd5b506104366004803603602081101561042057600080fd5b8101908080359060200190929190505050610ef6565b005b34801561044457600080fd5b506105286004803603606081101561045b57600080fd5b81019080803590602001909291908035906020019064010000000081111561048257600080fd5b82018360208201111561049457600080fd5b803590602001918460018302840111640100000000831117156104b657600080fd5b91908080601f016020809104026020016040519081016040528093929190818152602001838380828437600081840152601f19601f820116905080830192505050505050509192919290803573ffffffffffffffffffffffffffffffffffffffff16906020019092919050505061106f565b005b34801561053657600080fd5b5061053f61117b565b6040518082815260200191505060405180910390f35b34801561056157600080fd5b5061058e6004803603602081101561057857600080fd5b8101908080359060200190929190505050611181565b604051808681526020018060200180602001806020018573ffffffffffffffffffffffffffffffffffffffff1673ffffffffffffffffffffffffffffffffffffffff168152602001848103845288818151815260200191508051906020019080838360005b8381101561060e5780820151818401526020810190506105f3565b50505050905090810190601f16801561063b5780820380516001836020036101000a031916815260200191505b50848103835287818151815260200191508051906020019060200280838360005b8381101561067757808201518184015260208101905061065c565b50505050905001848103825286818151815260200191508051906020019060200280838360005b838110156106b957808201518184015260208101905061069e565b505050509050019850505050505050505060405180910390f35b60016000815480929190600101919050555060015460026000600154815260200190815260200160002060000181905550826002600060015481526020019081526020016000206001019080519060200190610730929190611370565b5081600260006001548152602001908152602001600020600201908051906020019061075d9291906113f0565b5080600260006001548152602001908152602001600020600301908051906020019061078a9291906113f0565b503360026000600154815260200190815260200160002060060160006101000a81548173ffffffffffffffffffffffffffffffffffffffff021916908373ffffffffffffffffffffffffffffffffffffffff1602179055507fdfead977cf9e15102974c9088fab1b3f543b13f88c9d7fd62cd672357dacc06160015484848433604051808681526020018060200180602001806020018573ffffffffffffffffffffffffffffffffffffffff1673ffffffffffffffffffffffffffffffffffffffff168152602001848103845288818151815260200191508051906020019080838360005b8381101561088a57808201518184015260208101905061086f565b50505050905090810190601f1680156108b75780820380516001836020036101000a031916815260200191505b50848103835287818151815260200191508051906020019060200280838360005b838110156108f35780820151818401526020810190506108d8565b50505050905001848103825286818151815260200191508051906020019060200280838360005b8381101561093557808201518184015260208101905061091a565b505050509050019850505050505050505060405180910390a1505050565b6000600260008381526020019081526020016000209050600080600090505b8260020180549050811015610a26573483600201828154811061099157fe5b90600052602060002001541415610a195760018360040160003373ffffffffffffffffffffffffffffffffffffffff1673ffffffffffffffffffffffffffffffffffffffff16815260200190815260200160002060006101000a81548160ff021916908315150217905550826003018181548110610a0b57fe5b906000526020600020015491505b8080600101915050610972565b50600115158260040160003373ffffffffffffffffffffffffffffffffffffffff1673ffffffffffffffffffffffffffffffffffffffff16815260200190815260200160002060009054906101000a900460ff1615151415610cff5760008260060160009054906101000a900473ffffffffffffffffffffffffffffffffffffffff1690508073ffffffffffffffffffffffffffffffffffffffff166108fc349081150290604051600060405180830381858888f19350505050158015610af1573d6000803e3d6000fd5b507fe14c5ad2d1d1e9ff3ce866a7b9377f8db9b6aa2a6e7efdc07d6b15f7bd0e91b0848460010134858533600360003373ffffffffffffffffffffffffffffffffffffffff1673ffffffffffffffffffffffffffffffffffffffff16815260200190815260200160002060000160405180888152602001806020018781526020018681526020018573ffffffffffffffffffffffffffffffffffffffff1673ffffffffffffffffffffffffffffffffffffffff1681526020018473ffffffffffffffffffffffffffffffffffffffff1673ffffffffffffffffffffffffffffffffffffffff16815260200180602001838103835289818154600181600116156101000203166002900481526020019150805460018160011615610100020316600290048015610c615780601f10610c3657610100808354040283529160200191610c61565b820191906000526020600020905b815481529060010190602001808311610c4457829003601f168201915b5050838103825284818154600181600116156101000203166002900481526020019150805460018160011615610100020316600290048015610ce45780601f10610cb957610100808354040283529160200191610ce4565b820191906000526020600020905b815481529060010190602001808311610cc757829003601f168201915b5050995050505050505050505060405180910390a150610d04565b600080fd5b505050565b600080600360003373ffffffffffffffffffffffffffffffffffffffff1673ffffffffffffffffffffffffffffffffffffffff16815260200190815260200160002060000180546001816001161561010002031660029004905014610dd6576040517f08c379a000000000000000000000000000000000000000000000000000000000815260040180806020018281038252601b8152602001807f436f6e73756d657220416c72656164792052656769737465726564000000000081525060200191505060405180910390fd5b81600360003373ffffffffffffffffffffffffffffffffffffffff1673ffffffffffffffffffffffffffffffffffffffff1681526020019081526020016000206000019080519060200190610e2c929190611370565b507fb4ae5cd46d39b50fcd183c4618b42ad70bb37e5e5367ec4a6d6d70bc5e43bc7333604051808273ffffffffffffffffffffffffffffffffffffffff1673ffffffffffffffffffffffffffffffffffffffff16815260200180602001828103825260168152602001807f53756365737366756c6c792052656769737465726564000000000000000000008152506020019250505060405180910390a1339050919050565b6000809054906101000a900473ffffffffffffffffffffffffffffffffffffffff1681565b6000600260008381526020019081526020016000209050600115158160040160003373ffffffffffffffffffffffffffffffffffffffff1673ffffffffffffffffffffffffffffffffffffffff16815260200190815260200160002060009054906101000a900460ff1615151415611066577fa907c75b4c83e2c2c658b60f08b95d7d8f10fed756b0ed8b0fcac0859e1840248160050160003373ffffffffffffffffffffffffffffffffffffffff1673ffffffffffffffffffffffffffffffffffffffff16815260200190815260200160002060405180806020018281038252838181546001816001161561010002031660029004815260200191508054600181600116156101000203166002900480156110535780601f1061102857610100808354040283529160200191611053565b820191906000526020600020905b81548152906001019060200180831161103657829003601f168201915b50509250505060405180910390a161106b565b600080fd5b5050565b816002600085815260200190815260200160002060050160008373ffffffffffffffffffffffffffffffffffffffff1673ffffffffffffffffffffffffffffffffffffffff16815260200190815260200160002090805190602001906110d6929190611370565b507f5dc555ee6f6043f87ab12016a9b7fd892c4b51727d0baa9fa9b38741941dc68c833383604051808481526020018373ffffffffffffffffffffffffffffffffffffffff1673ffffffffffffffffffffffffffffffffffffffff1681526020018273ffffffffffffffffffffffffffffffffffffffff1673ffffffffffffffffffffffffffffffffffffffff168152602001935050505060405180910390a1505050565b60015481565b60006060806060600060026000878152602001908152602001600020600001546002600088815260200190815260200160002060010160026000898152602001908152602001600020600201600260008a8152602001908152602001600020600301600260008b815260200190815260200160002060060160009054906101000a900473ffffffffffffffffffffffffffffffffffffffff16838054600181600116156101000203166002900480601f0160208091040260200160405190810160405280929190818152602001828054600181600116156101000203166002900480156112af5780601f10611284576101008083540402835291602001916112af565b820191906000526020600020905b81548152906001019060200180831161129257829003601f168201915b505050505093508280548060200260200160405190810160405280929190818152602001828054801561130157602002820191906000526020600020905b8154815260200190600101908083116112ed575b505050505092508180548060200260200160405190810160405280929190818152602001828054801561135357602002820191906000526020600020905b81548152602001906001019080831161133f575b505050505091508090509450945094509450945091939590929450565b828054600181600116156101000203166002900490600052602060002090601f016020900481019282601f106113b157805160ff19168380011785556113df565b828001600101855582156113df579182015b828111156113de5782518255916020019190600101906113c3565b5b5090506113ec919061143d565b5090565b82805482825590600052602060002090810192821561142c579160200282015b8281111561142b578251825591602001919060010190611410565b5b509050611439919061143d565b5090565b61145f91905b8082111561145b576000816000905550600101611443565b5090565b9056fea26469706673582212202cff83d7cafeee667eef69b2dd603bd75a55477ed4971a76d9552e72942c09bf64736f6c63430006000033",
  "source": "pragma solidity >=0.4.22 <0.8.0;\n\ncontract BIoTCM {\n    \n    struct ContentProduct{\n        uint id;\n        string description;\n        uint[] price;\n        uint[] boundedError;\n        mapping(address=>bool) accessList;\n        mapping(address=>string) ContentProductHash;\n        address payable owner;\n    }\n    \n    struct Consumer {\n        string publicKey;\n    }\n    \n    address public contractCreator;\n    uint public ContentProductCount = 0;\n    mapping(uint => ContentProduct) private ContentProducts;\n    mapping(address => Consumer) private ConsumerMap;\n    \n     constructor () public {\n        contractCreator = msg.sender;\n    }\n    \n    event ContentProductCreated(uint id, string  description, uint[] price, uint[] boundedError ,address owner);\n    event ConsumerRegisterProductEvent(address Consumer , string message);\n    event ContentProductPurchased(uint id, string description, uint price , uint boundedError , address payable owner, address Consumer,string ConsumerPubliceKey);\n    event ContentProductSend(uint id,address owner,address Consumer);\n    event ContentProductQuery(string fileHash);\n    \n    function dataOwnerCreateContentProduct(string  memory _description, uint[] memory _price, uint[] memory _boundedError) public{\n        // Increment ContentProduct Count\n        ContentProductCount++;\n        // Create the ContentProduct\n        ContentProducts[ContentProductCount].id = ContentProductCount;\n        ContentProducts[ContentProductCount].description = _description;\n        ContentProducts[ContentProductCount].price = _price;\n        ContentProducts[ContentProductCount].boundedError = _boundedError;\n        ContentProducts[ContentProductCount].owner = msg.sender;\n        emit ContentProductCreated(ContentProductCount,_description,_price,_boundedError,msg.sender);\n    }\n    \n    function consumerRegisterProduct (string memory _publicKey) public returns (address) {\n        // check if consumer is already registered\n        require(bytes(ConsumerMap[msg.sender].publicKey).length == 0,\"Consumer Already Registered\");\n        ConsumerMap[msg.sender].publicKey = _publicKey;\n        emit ConsumerRegisterProductEvent(msg.sender,\"Sucessfully Registered\");\n        return msg.sender;\n    }\n    \n    function purchaseContentProduct(uint _id) public payable{\n        ContentProduct storage _product = ContentProducts[_id];\n        uint _boundedError;\n        for (uint it =0 ; it < _product.price.length; it++ ){\n            if (_product.price[it] == msg.value ){\n                _product.accessList[msg.sender] = true;\n                _boundedError = _product.boundedError[it];\n            }\n        }\n        if (_product.accessList[msg.sender] == true){\n            address payable _owner = _product.owner;\n            payable(_owner).transfer(msg.value);\n            emit ContentProductPurchased(_id,_product.description,msg.value,_boundedError,_owner,msg.sender,ConsumerMap[msg.sender].publicKey);\n        }\n        else{\n            revert();\n        }\n    }\n\n    function sendContentProduct(uint _id, string memory _fileHash, address _Consumer) public {\n        ContentProducts[_id].ContentProductHash[_Consumer] = _fileHash;\n        emit ContentProductSend(_id,msg.sender,_Consumer);\n    }\n    \n    function queryContentProduct(uint _id) public {\n        ContentProduct storage _product = ContentProducts[_id];\n        if (_product.accessList[msg.sender] == true) {\n            emit ContentProductQuery(_product.ContentProductHash[msg.sender]);\n        }\n        else{\n            revert();\n        }\n    }\n    \n    function getContentProductInfo(uint _id) public view returns (uint id, string memory, uint[] memory , uint[] memory, address){\n        return (ContentProducts[_id].id,ContentProducts[_id].description,ContentProducts[_id].price,ContentProducts[_id].boundedError,ContentProducts[_id].owner);\n    }\n    \n}",
  "sourcePath": "/Users/yukai/BEDPP/BEPDPP/contracts/BIoTCM.sol",
  "compiler": {
    "name": "solc",
    "version": "0.6.0+commit.26b70077.Emscripten.clang"
  },
  "schemaVersion": "3.3.2",
  "updatedAt": "2021-03-01T00:06:12.420Z",
  "networkType": "ethereum",
  "devdoc": {
    "methods": {}
  },
  "userdoc": {
    "methods": {}
  }
}