{
  "contractName": "BEDMoB",
  "abi": [
    {
      "inputs": [],
      "stateMutability": "nonpayable",
      "type": "constructor"
    },
    {
      "anonymous": false,
      "inputs": [
        {
          "indexed": false,
          "internalType": "address",
          "name": "Customer",
          "type": "address"
        },
        {
          "indexed": false,
          "internalType": "string",
          "name": "message",
          "type": "string"
        }
      ],
      "name": "CustomerRegisterEvent",
      "type": "event"
    },
    {
      "anonymous": false,
      "inputs": [
        {
          "indexed": false,
          "internalType": "uint256",
          "name": "id",
          "type": "uint256"
        },
        {
          "indexed": false,
          "internalType": "string",
          "name": "description",
          "type": "string"
        },
        {
          "indexed": false,
          "internalType": "uint256[]",
          "name": "price",
          "type": "uint256[]"
        },
        {
          "indexed": false,
          "internalType": "uint256[]",
          "name": "boundedError",
          "type": "uint256[]"
        },
        {
          "indexed": false,
          "internalType": "address",
          "name": "owner",
          "type": "address"
        }
      ],
      "name": "IoTDataProductCreated",
      "type": "event"
    },
    {
      "anonymous": false,
      "inputs": [
        {
          "indexed": false,
          "internalType": "uint256",
          "name": "id",
          "type": "uint256"
        },
        {
          "indexed": false,
          "internalType": "string",
          "name": "description",
          "type": "string"
        },
        {
          "indexed": false,
          "internalType": "uint256",
          "name": "price",
          "type": "uint256"
        },
        {
          "indexed": false,
          "internalType": "uint256",
          "name": "boundedError",
          "type": "uint256"
        },
        {
          "indexed": false,
          "internalType": "address payable",
          "name": "owner",
          "type": "address"
        },
        {
          "indexed": false,
          "internalType": "address",
          "name": "Customer",
          "type": "address"
        },
        {
          "indexed": false,
          "internalType": "string",
          "name": "CustomerPubliceKey",
          "type": "string"
        }
      ],
      "name": "IoTDataProductPurchased",
      "type": "event"
    },
    {
      "anonymous": false,
      "inputs": [
        {
          "indexed": false,
          "internalType": "string",
          "name": "fileHash",
          "type": "string"
        }
      ],
      "name": "IoTDataProductQuery",
      "type": "event"
    },
    {
      "anonymous": false,
      "inputs": [
        {
          "indexed": false,
          "internalType": "uint256",
          "name": "id",
          "type": "uint256"
        },
        {
          "indexed": false,
          "internalType": "address",
          "name": "owner",
          "type": "address"
        },
        {
          "indexed": false,
          "internalType": "address",
          "name": "Customer",
          "type": "address"
        }
      ],
      "name": "IoTDataProductSend",
      "type": "event"
    },
    {
      "inputs": [],
      "name": "IoTDataProductCount",
      "outputs": [
        {
          "internalType": "uint256",
          "name": "",
          "type": "uint256"
        }
      ],
      "stateMutability": "view",
      "type": "function"
    },
    {
      "inputs": [],
      "name": "contractCreator",
      "outputs": [
        {
          "internalType": "address",
          "name": "",
          "type": "address"
        }
      ],
      "stateMutability": "view",
      "type": "function"
    },
    {
      "inputs": [
        {
          "internalType": "string",
          "name": "_description",
          "type": "string"
        },
        {
          "internalType": "uint256[]",
          "name": "_price",
          "type": "uint256[]"
        },
        {
          "internalType": "uint256[]",
          "name": "_boundedError",
          "type": "uint256[]"
        }
      ],
      "name": "createIoTDataProduct",
      "outputs": [],
      "stateMutability": "nonpayable",
      "type": "function"
    },
    {
      "inputs": [
        {
          "internalType": "string",
          "name": "_publicKey",
          "type": "string"
        }
      ],
      "name": "CustomerRegister",
      "outputs": [
        {
          "internalType": "address",
          "name": "",
          "type": "address"
        }
      ],
      "stateMutability": "nonpayable",
      "type": "function"
    },
    {
      "inputs": [
        {
          "internalType": "uint256",
          "name": "_id",
          "type": "uint256"
        }
      ],
      "name": "purchaseIoTDataProduct",
      "outputs": [],
      "stateMutability": "payable",
      "type": "function"
    },
    {
      "inputs": [
        {
          "internalType": "uint256",
          "name": "_id",
          "type": "uint256"
        },
        {
          "internalType": "string",
          "name": "_fileHash",
          "type": "string"
        },
        {
          "internalType": "address",
          "name": "_Customer",
          "type": "address"
        }
      ],
      "name": "sendIoTdataProduct",
      "outputs": [],
      "stateMutability": "nonpayable",
      "type": "function"
    },
    {
      "inputs": [
        {
          "internalType": "uint256",
          "name": "_id",
          "type": "uint256"
        }
      ],
      "name": "queryIoTdataProduct",
      "outputs": [],
      "stateMutability": "nonpayable",
      "type": "function"
    },
    {
      "inputs": [
        {
          "internalType": "uint256",
          "name": "_id",
          "type": "uint256"
        }
      ],
      "name": "getIoTDataProductInfo",
      "outputs": [
        {
          "internalType": "uint256",
          "name": "id",
          "type": "uint256"
        },
        {
          "internalType": "string",
          "name": "",
          "type": "string"
        },
        {
          "internalType": "uint256[]",
          "name": "",
          "type": "uint256[]"
        },
        {
          "internalType": "uint256[]",
          "name": "",
          "type": "uint256[]"
        },
        {
          "internalType": "address",
          "name": "",
          "type": "address"
        }
      ],
      "stateMutability": "view",
      "type": "function"
    }
  ],
  "bytecode": "0x6080604052600060015534801561001557600080fd5b50336000806101000a81548173ffffffffffffffffffffffffffffffffffffffff021916908373ffffffffffffffffffffffffffffffffffffffff160217905550611498806100656000396000f3fe60806040526004361061007b5760003560e01c8063c56ad1171161004e578063c56ad11714610470578063ca3cb1ef146104ab578063de311858146105b3578063f92642e1146105e15761007b565b80631e2f73b11461008057806374a7f91b146100d75780638d4f8351146102c7578063b79b5722146102f2575b600080fd5b34801561008c57600080fd5b506100956106d3565b604051808273ffffffffffffffffffffffffffffffffffffffff1673ffffffffffffffffffffffffffffffffffffffff16815260200191505060405180910390f35b3480156100e357600080fd5b506102c5600480360360608110156100fa57600080fd5b810190808035906020019064010000000081111561011757600080fd5b82018360208201111561012957600080fd5b8035906020019184600183028401116401000000008311171561014b57600080fd5b91908080601f016020809104026020016040519081016040528093929190818152602001838380828437600081840152601f19601f820116905080830192505050505050509192919290803590602001906401000000008111156101ae57600080fd5b8201836020820111156101c057600080fd5b803590602001918460208302840111640100000000831117156101e257600080fd5b919080806020026020016040519081016040528093929190818152602001838360200280828437600081840152601f19601f8201169050808301925050505050505091929192908035906020019064010000000081111561024257600080fd5b82018360208201111561025457600080fd5b8035906020019184602083028401116401000000008311171561027657600080fd5b919080806020026020016040519081016040528093929190818152602001838360200280828437600081840152601f19601f8201169050808301925050505050505091929192905050506106f8565b005b3480156102d357600080fd5b506102dc610978565b6040518082815260200191505060405180910390f35b3480156102fe57600080fd5b5061032b6004803603602081101561031557600080fd5b810190808035906020019092919050505061097e565b604051808681526020018060200180602001806020018573ffffffffffffffffffffffffffffffffffffffff1673ffffffffffffffffffffffffffffffffffffffff168152602001848103845288818151815260200191508051906020019080838360005b838110156103ab578082015181840152602081019050610390565b50505050905090810190601f1680156103d85780820380516001836020036101000a031916815260200191505b50848103835287818151815260200191508051906020019060200280838360005b838110156104145780820151818401526020810190506103f9565b50505050905001848103825286818151815260200191508051906020019060200280838360005b8381101561045657808201518184015260208101905061043b565b505050509050019850505050505050505060405180910390f35b34801561047c57600080fd5b506104a96004803603602081101561049357600080fd5b8101908080359060200190929190505050610b6d565b005b3480156104b757600080fd5b50610571600480360360208110156104ce57600080fd5b81019080803590602001906401000000008111156104eb57600080fd5b8201836020820111156104fd57600080fd5b8035906020019184600183028401116401000000008311171561051f57600080fd5b91908080601f016020809104026020016040519081016040528093929190818152602001838380828437600081840152601f19601f820116905080830192505050505050509192919290505050610ce6565b604051808273ffffffffffffffffffffffffffffffffffffffff1673ffffffffffffffffffffffffffffffffffffffff16815260200191505060405180910390f35b6105df600480360360208110156105c957600080fd5b8101908080359060200190929190505050610eae565b005b3480156105ed57600080fd5b506106d16004803603606081101561060457600080fd5b81019080803590602001909291908035906020019064010000000081111561062b57600080fd5b82018360208201111561063d57600080fd5b8035906020019184600183028401116401000000008311171561065f57600080fd5b91908080601f016020809104026020016040519081016040528093929190818152602001838380828437600081840152601f19601f820116905080830192505050505050509192919290803573ffffffffffffffffffffffffffffffffffffffff169060200190929190505050611264565b005b6000809054906101000a900473ffffffffffffffffffffffffffffffffffffffff1681565b60016000815480929190600101919050555060015460026000600154815260200190815260200160002060000181905550826002600060015481526020019081526020016000206001019080519060200190610755929190611370565b508160026000600154815260200190815260200160002060020190805190602001906107829291906113f0565b508060026000600154815260200190815260200160002060030190805190602001906107af9291906113f0565b503360026000600154815260200190815260200160002060060160006101000a81548173ffffffffffffffffffffffffffffffffffffffff021916908373ffffffffffffffffffffffffffffffffffffffff1602179055507fb86f6864757459d49ddff213b3c23a37068cdf60c25d107f621e856de31fd99260015484848433604051808681526020018060200180602001806020018573ffffffffffffffffffffffffffffffffffffffff1673ffffffffffffffffffffffffffffffffffffffff168152602001848103845288818151815260200191508051906020019080838360005b838110156108af578082015181840152602081019050610894565b50505050905090810190601f1680156108dc5780820380516001836020036101000a031916815260200191505b50848103835287818151815260200191508051906020019060200280838360005b838110156109185780820151818401526020810190506108fd565b50505050905001848103825286818151815260200191508051906020019060200280838360005b8381101561095a57808201518184015260208101905061093f565b505050509050019850505050505050505060405180910390a1505050565b60015481565b60006060806060600060026000878152602001908152602001600020600001546002600088815260200190815260200160002060010160026000898152602001908152602001600020600201600260008a8152602001908152602001600020600301600260008b815260200190815260200160002060060160009054906101000a900473ffffffffffffffffffffffffffffffffffffffff16838054600181600116156101000203166002900480601f016020809104026020016040519081016040528092919081815260200182805460018160011615610100020316600290048015610aac5780601f10610a8157610100808354040283529160200191610aac565b820191906000526020600020905b815481529060010190602001808311610a8f57829003601f168201915b5050505050935082805480602002602001604051908101604052809291908181526020018280548015610afe57602002820191906000526020600020905b815481526020019060010190808311610aea575b5050505050925081805480602002602001604051908101604052809291908181526020018280548015610b5057602002820191906000526020600020905b815481526020019060010190808311610b3c575b505050505091508090509450945094509450945091939590929450565b6000600260008381526020019081526020016000209050600115158160040160003373ffffffffffffffffffffffffffffffffffffffff1673ffffffffffffffffffffffffffffffffffffffff16815260200190815260200160002060009054906101000a900460ff1615151415610cdd577f26b0c03ab202262f898df31c9cc4b793c88d79d832a3f5afb9a2f0f8d85e668b8160050160003373ffffffffffffffffffffffffffffffffffffffff1673ffffffffffffffffffffffffffffffffffffffff1681526020019081526020016000206040518080602001828103825283818154600181600116156101000203166002900481526020019150805460018160011615610100020316600290048015610cca5780601f10610c9f57610100808354040283529160200191610cca565b820191906000526020600020905b815481529060010190602001808311610cad57829003601f168201915b50509250505060405180910390a1610ce2565b600080fd5b5050565b600080600360003373ffffffffffffffffffffffffffffffffffffffff1673ffffffffffffffffffffffffffffffffffffffff16815260200190815260200160002060000180546001816001161561010002031660029004905014610db3576040517f08c379a000000000000000000000000000000000000000000000000000000000815260040180806020018281038252601b8152602001807f437573746f6d657220416c72656164792052656769737465726564000000000081525060200191505060405180910390fd5b81600360003373ffffffffffffffffffffffffffffffffffffffff1673ffffffffffffffffffffffffffffffffffffffff1681526020019081526020016000206000019080519060200190610e09929190611370565b507f2e9f663c6c005959605dadffc78786170fa2533fefb3369478662a3506b5f03633604051808273ffffffffffffffffffffffffffffffffffffffff1673ffffffffffffffffffffffffffffffffffffffff16815260200180602001828103825260168152602001807f53756365737366756c6c792052656769737465726564000000000000000000008152506020019250505060405180910390a1339050919050565b6000600260008381526020019081526020016000209050600080600090505b8260020180549050811015610f815734836002018281548110610eec57fe5b90600052602060002001541415610f745760018360040160003373ffffffffffffffffffffffffffffffffffffffff1673ffffffffffffffffffffffffffffffffffffffff16815260200190815260200160002060006101000a81548160ff021916908315150217905550826003018181548110610f6657fe5b906000526020600020015491505b8080600101915050610ecd565b50600115158260040160003373ffffffffffffffffffffffffffffffffffffffff1673ffffffffffffffffffffffffffffffffffffffff16815260200190815260200160002060009054906101000a900460ff161515141561125a5760008260060160009054906101000a900473ffffffffffffffffffffffffffffffffffffffff1690508073ffffffffffffffffffffffffffffffffffffffff166108fc349081150290604051600060405180830381858888f1935050505015801561104c573d6000803e3d6000fd5b507f013f9966233d339930ee08faa85f604e77b92da2bcafa4a30310cd28e4d2014d848460010134858533600360003373ffffffffffffffffffffffffffffffffffffffff1673ffffffffffffffffffffffffffffffffffffffff16815260200190815260200160002060000160405180888152602001806020018781526020018681526020018573ffffffffffffffffffffffffffffffffffffffff1673ffffffffffffffffffffffffffffffffffffffff1681526020018473ffffffffffffffffffffffffffffffffffffffff1673ffffffffffffffffffffffffffffffffffffffff168152602001806020018381038352898181546001816001161561010002031660029004815260200191508054600181600116156101000203166002900480156111bc5780601f10611191576101008083540402835291602001916111bc565b820191906000526020600020905b81548152906001019060200180831161119f57829003601f168201915b505083810382528481815460018160011615610100020316600290048152602001915080546001816001161561010002031660029004801561123f5780601f106112145761010080835404028352916020019161123f565b820191906000526020600020905b81548152906001019060200180831161122257829003601f168201915b5050995050505050505050505060405180910390a15061125f565b600080fd5b505050565b816002600085815260200190815260200160002060050160008373ffffffffffffffffffffffffffffffffffffffff1673ffffffffffffffffffffffffffffffffffffffff16815260200190815260200160002090805190602001906112cb929190611370565b507f28237947973259e9ea2500af21605b0f1b359724be3ecbb12879bce8a6fd92d6833383604051808481526020018373ffffffffffffffffffffffffffffffffffffffff1673ffffffffffffffffffffffffffffffffffffffff1681526020018273ffffffffffffffffffffffffffffffffffffffff1673ffffffffffffffffffffffffffffffffffffffff168152602001935050505060405180910390a1505050565b828054600181600116156101000203166002900490600052602060002090601f016020900481019282601f106113b157805160ff19168380011785556113df565b828001600101855582156113df579182015b828111156113de5782518255916020019190600101906113c3565b5b5090506113ec919061143d565b5090565b82805482825590600052602060002090810192821561142c579160200282015b8281111561142b578251825591602001919060010190611410565b5b509050611439919061143d565b5090565b61145f91905b8082111561145b576000816000905550600101611443565b5090565b9056fea2646970667358221220325efa31b06b230c2bb855d6d5b5d6788131be052f9edb53239d375534262c7c64736f6c63430006000033",
  "source": "pragma solidity >=0.4.22 <0.8.0;\n\ncontract BEDMoB {\n    \n    struct IoTDataProduct{\n        uint id;\n        string description;\n        uint[] price;\n        uint[] boundedError;\n        mapping(address=>bool) accessList;\n        mapping(address=>string) IoTDataProductHash;\n        address payable owner;\n    }\n    \n    struct Customer {\n        string publicKey;\n    }\n    \n    address public contractCreator;\n    uint public IoTDataProductCount = 0;\n    mapping(uint => IoTDataProduct) private IoTDataProducts;\n    mapping(address => Customer) private CustomerMap;\n    \n     constructor () public {\n        contractCreator = msg.sender;\n    }\n    \n    event IoTDataProductCreated(uint id, string  description, uint[] price, uint[] boundedError ,address owner);\n    event CustomerRegisterEvent(address Customer , string message);\n    event IoTDataProductPurchased(uint id, string description, uint price , uint boundedError , address payable owner, address Customer,string CustomerPubliceKey);\n    event IoTDataProductSend(uint id,address owner,address Customer);\n    event IoTDataProductQuery(string fileHash);\n    \n    function createIoTDataProduct(string  memory _description, uint[] memory _price, uint[] memory _boundedError) public{\n        // Increment IoTDataProduct count\n        IoTDataProductCount++;\n        // Create the IoTDataProduct\n        IoTDataProducts[IoTDataProductCount].id = IoTDataProductCount;\n        IoTDataProducts[IoTDataProductCount].description = _description;\n        IoTDataProducts[IoTDataProductCount].price = _price;\n        IoTDataProducts[IoTDataProductCount].boundedError = _boundedError;\n    \n        IoTDataProducts[IoTDataProductCount].owner = msg.sender;\n        emit IoTDataProductCreated(IoTDataProductCount,_description,_price,_boundedError,msg.sender);\n    }\n    \n    function CustomerRegister (string memory _publicKey) public returns (address) {\n        // check if customer is already registered\n        require(bytes(CustomerMap[msg.sender].publicKey).length == 0,\"Customer Already Registered\");\n        CustomerMap[msg.sender].publicKey = _publicKey;\n        emit CustomerRegisterEvent(msg.sender,\"Sucessfully Registered\");\n        return msg.sender;\n    }\n    \n    function purchaseIoTDataProduct(uint _id) public payable{\n        IoTDataProduct storage _product = IoTDataProducts[_id];\n        uint _boundedError;\n        for (uint it =0 ; it < _product.price.length; it++ ){\n            if (_product.price[it] == msg.value ){\n                _product.accessList[msg.sender] = true;\n                _boundedError = _product.boundedError[it];\n            }\n        }\n        if (_product.accessList[msg.sender] == true){\n            address payable _owner = _product.owner;\n            payable(_owner).transfer(msg.value);\n            emit IoTDataProductPurchased(_id,_product.description,msg.value,_boundedError,_owner,msg.sender,CustomerMap[msg.sender].publicKey);\n        }\n        else{\n            revert();\n        }\n    }\n\n    function sendIoTdataProduct(uint _id, string memory _fileHash, address _Customer) public {\n        IoTDataProducts[_id].IoTDataProductHash[_Customer] = _fileHash;\n        emit IoTDataProductSend(_id,msg.sender,_Customer);\n    }\n    \n    function queryIoTdataProduct(uint _id) public {\n        IoTDataProduct storage _product = IoTDataProducts[_id];\n        if (_product.accessList[msg.sender] == true) {\n            emit IoTDataProductQuery(_product.IoTDataProductHash[msg.sender]);\n        }\n        else{\n            revert();\n        }\n    }\n    \n    function getIoTDataProductInfo(uint _id) public view returns (uint id, string memory, uint[] memory , uint[] memory, address){\n        return (IoTDataProducts[_id].id,IoTDataProducts[_id].description,IoTDataProducts[_id].price,IoTDataProducts[_id].boundedError,IoTDataProducts[_id].owner);\n    }\n    \n}",
  "sourcePath": "/Users/yukai/Documents/Blockchain_Project/BEDPP/contracts/BEDMoB.sol",
  "compiler": {
    "name": "solc",
    "version": "0.6.0+commit.26b70077.Emscripten.clang"
  },
  "schemaVersion": "3.3.2",
  "updatedAt": "2021-02-24T08:12:29.280Z",
  "devdoc": {
    "methods": {}
  },
  "userdoc": {
    "methods": {}
  }
}